{
	"LibFixedPointMath.sol": {
		"LibFixedPointMath": {
			"abi": [
				{
					"inputs": [],
					"name": "Overflow",
					"type": "error"
				},
				{
					"inputs": [],
					"name": "MAX_EXP_INPUT",
					"outputs": [
						{
							"internalType": "uint128",
							"name": "",
							"type": "uint128"
						}
					],
					"stateMutability": "view",
					"type": "function"
				},
				{
					"inputs": [],
					"name": "SCALING_FACTOR",
					"outputs": [
						{
							"internalType": "uint256",
							"name": "",
							"type": "uint256"
						}
					],
					"stateMutability": "view",
					"type": "function"
				}
			],
			"devdoc": {
				"kind": "dev",
				"methods": {},
				"version": 1
			},
			"evm": {
				"assembly": "    /* \"LibFixedPointMath.sol\":220:4043  library LibFixedPointMath {... */\n  dataSize(sub_0)\n  dataOffset(sub_0)\n  0x0b\n  dup3\n  dup3\n  dup3\n  codecopy\n  dup1\n  mload\n  0x00\n  byte\n  0x73\n  eq\n  tag_1\n  jumpi\n  mstore(0x00, 0x4e487b7100000000000000000000000000000000000000000000000000000000)\n  mstore(0x04, 0x00)\n  revert(0x00, 0x24)\ntag_1:\n  mstore(0x00, address)\n  0x73\n  dup2\n  mstore8\n  dup3\n  dup2\n  return\nstop\n\nsub_0: assembly {\n        /* \"LibFixedPointMath.sol\":220:4043  library LibFixedPointMath {... */\n      eq(address, deployTimeAddress())\n      mstore(0x40, 0x80)\n      jumpi(tag_1, lt(calldatasize, 0x04))\n      shr(0xe0, calldataload(0x00))\n      dup1\n      0xbb0a0aa5\n      eq\n      tag_2\n      jumpi\n      dup1\n      0xef4cadc5\n      eq\n      tag_3\n      jumpi\n    tag_1:\n      0x00\n      dup1\n      revert\n        /* \"LibFixedPointMath.sol\":252:319  uint128 public constant MAX_EXP_INPUT = 135_305_999_368_893_231_588 */\n    tag_2:\n      tag_4\n      tag_5\n      jump\t// in\n    tag_4:\n      mload(0x40)\n      tag_6\n      swap2\n      swap1\n      tag_7\n      jump\t// in\n    tag_6:\n      mload(0x40)\n      dup1\n      swap2\n      sub\n      swap1\n      return\n        /* \"LibFixedPointMath.sol\":325:370  uint256 public constant SCALING_FACTOR = 1e18 */\n    tag_3:\n      tag_8\n      tag_9\n      jump\t// in\n    tag_8:\n      mload(0x40)\n      tag_10\n      swap2\n      swap1\n      tag_11\n      jump\t// in\n    tag_10:\n      mload(0x40)\n      dup1\n      swap2\n      sub\n      swap1\n      return\n        /* \"LibFixedPointMath.sol\":252:319  uint128 public constant MAX_EXP_INPUT = 135_305_999_368_893_231_588 */\n    tag_5:\n        /* \"LibFixedPointMath.sol\":292:319  135_305_999_368_893_231_588 */\n      0x0755bf798b4a1bf1e4\n        /* \"LibFixedPointMath.sol\":252:319  uint128 public constant MAX_EXP_INPUT = 135_305_999_368_893_231_588 */\n      dup2\n      jump\t// out\n        /* \"LibFixedPointMath.sol\":325:370  uint256 public constant SCALING_FACTOR = 1e18 */\n    tag_9:\n        /* \"LibFixedPointMath.sol\":366:370  1e18 */\n      0x0de0b6b3a7640000\n        /* \"LibFixedPointMath.sol\":325:370  uint256 public constant SCALING_FACTOR = 1e18 */\n      dup2\n      jump\t// out\n        /* \"#utility.yul\":7:125   */\n    tag_12:\n        /* \"#utility.yul\":44:51   */\n      0x00\n        /* \"#utility.yul\":84:118   */\n      0xffffffffffffffffffffffffffffffff\n        /* \"#utility.yul\":77:82   */\n      dup3\n        /* \"#utility.yul\":73:119   */\n      and\n        /* \"#utility.yul\":62:119   */\n      swap1\n      pop\n        /* \"#utility.yul\":7:125   */\n      swap2\n      swap1\n      pop\n      jump\t// out\n        /* \"#utility.yul\":131:257   */\n    tag_13:\n        /* \"#utility.yul\":226:250   */\n      tag_19\n        /* \"#utility.yul\":244:249   */\n      dup2\n        /* \"#utility.yul\":226:250   */\n      tag_12\n      jump\t// in\n    tag_19:\n        /* \"#utility.yul\":221:224   */\n      dup3\n        /* \"#utility.yul\":214:251   */\n      mstore\n        /* \"#utility.yul\":131:257   */\n      pop\n      pop\n      jump\t// out\n        /* \"#utility.yul\":263:501   */\n    tag_7:\n        /* \"#utility.yul\":364:368   */\n      0x00\n        /* \"#utility.yul\":402:404   */\n      0x20\n        /* \"#utility.yul\":391:400   */\n      dup3\n        /* \"#utility.yul\":387:405   */\n      add\n        /* \"#utility.yul\":379:405   */\n      swap1\n      pop\n        /* \"#utility.yul\":415:494   */\n      tag_21\n        /* \"#utility.yul\":491:492   */\n      0x00\n        /* \"#utility.yul\":480:489   */\n      dup4\n        /* \"#utility.yul\":476:493   */\n      add\n        /* \"#utility.yul\":467:473   */\n      dup5\n        /* \"#utility.yul\":415:494   */\n      tag_13\n      jump\t// in\n    tag_21:\n        /* \"#utility.yul\":263:501   */\n      swap3\n      swap2\n      pop\n      pop\n      jump\t// out\n        /* \"#utility.yul\":507:584   */\n    tag_14:\n        /* \"#utility.yul\":544:551   */\n      0x00\n        /* \"#utility.yul\":573:578   */\n      dup2\n        /* \"#utility.yul\":562:578   */\n      swap1\n      pop\n        /* \"#utility.yul\":507:584   */\n      swap2\n      swap1\n      pop\n      jump\t// out\n        /* \"#utility.yul\":590:716   */\n    tag_15:\n        /* \"#utility.yul\":685:709   */\n      tag_24\n        /* \"#utility.yul\":703:708   */\n      dup2\n        /* \"#utility.yul\":685:709   */\n      tag_14\n      jump\t// in\n    tag_24:\n        /* \"#utility.yul\":680:683   */\n      dup3\n        /* \"#utility.yul\":673:710   */\n      mstore\n        /* \"#utility.yul\":590:716   */\n      pop\n      pop\n      jump\t// out\n        /* \"#utility.yul\":722:960   */\n    tag_11:\n        /* \"#utility.yul\":823:827   */\n      0x00\n        /* \"#utility.yul\":861:863   */\n      0x20\n        /* \"#utility.yul\":850:859   */\n      dup3\n        /* \"#utility.yul\":846:864   */\n      add\n        /* \"#utility.yul\":838:864   */\n      swap1\n      pop\n        /* \"#utility.yul\":874:953   */\n      tag_26\n        /* \"#utility.yul\":950:951   */\n      0x00\n        /* \"#utility.yul\":939:948   */\n      dup4\n        /* \"#utility.yul\":935:952   */\n      add\n        /* \"#utility.yul\":926:932   */\n      dup5\n        /* \"#utility.yul\":874:953   */\n      tag_15\n      jump\t// in\n    tag_26:\n        /* \"#utility.yul\":722:960   */\n      swap3\n      swap2\n      pop\n      pop\n      jump\t// out\n\n    auxdata: 0xa2646970667358221220f8d9277008dcde5360c02d93ea2f7ed7f790a64c8e2e4731b5c03e67213dbcd864736f6c63430008180033\n}\n",
				"bytecode": {
					"linkReferences": {},
					"object": "61014261004e600b8282823980515f1a607314610042577f4e487b71000000000000000000000000000000000000000000000000000000005f525f60045260245ffd5b305f52607381538281f3fe730000000000000000000000000000000000000000301460806040526004361061003f575f3560e01c8063bb0a0aa514610043578063ef4cadc514610061575b5f80fd5b61004b61007f565b60405161005891906100c2565b60405180910390f35b61006961008c565b60405161007691906100f3565b60405180910390f35b680755bf798b4a1bf1e481565b670de0b6b3a764000081565b5f6fffffffffffffffffffffffffffffffff82169050919050565b6100bc81610098565b82525050565b5f6020820190506100d55f8301846100b3565b92915050565b5f819050919050565b6100ed816100db565b82525050565b5f6020820190506101065f8301846100e4565b9291505056fea2646970667358221220f8d9277008dcde5360c02d93ea2f7ed7f790a64c8e2e4731b5c03e67213dbcd864736f6c63430008180033",
					"opcodes": "PUSH2 0x142 PUSH2 0x4E PUSH1 0xB DUP3 DUP3 DUP3 CODECOPY DUP1 MLOAD PUSH0 BYTE PUSH1 0x73 EQ PUSH2 0x42 JUMPI PUSH32 0x4E487B7100000000000000000000000000000000000000000000000000000000 PUSH0 MSTORE PUSH0 PUSH1 0x4 MSTORE PUSH1 0x24 PUSH0 REVERT JUMPDEST ADDRESS PUSH0 MSTORE PUSH1 0x73 DUP2 MSTORE8 DUP3 DUP2 RETURN INVALID PUSH20 0x0 ADDRESS EQ PUSH1 0x80 PUSH1 0x40 MSTORE PUSH1 0x4 CALLDATASIZE LT PUSH2 0x3F JUMPI PUSH0 CALLDATALOAD PUSH1 0xE0 SHR DUP1 PUSH4 0xBB0A0AA5 EQ PUSH2 0x43 JUMPI DUP1 PUSH4 0xEF4CADC5 EQ PUSH2 0x61 JUMPI JUMPDEST PUSH0 DUP1 REVERT JUMPDEST PUSH2 0x4B PUSH2 0x7F JUMP JUMPDEST PUSH1 0x40 MLOAD PUSH2 0x58 SWAP2 SWAP1 PUSH2 0xC2 JUMP JUMPDEST PUSH1 0x40 MLOAD DUP1 SWAP2 SUB SWAP1 RETURN JUMPDEST PUSH2 0x69 PUSH2 0x8C JUMP JUMPDEST PUSH1 0x40 MLOAD PUSH2 0x76 SWAP2 SWAP1 PUSH2 0xF3 JUMP JUMPDEST PUSH1 0x40 MLOAD DUP1 SWAP2 SUB SWAP1 RETURN JUMPDEST PUSH9 0x755BF798B4A1BF1E4 DUP2 JUMP JUMPDEST PUSH8 0xDE0B6B3A7640000 DUP2 JUMP JUMPDEST PUSH0 PUSH16 0xFFFFFFFFFFFFFFFFFFFFFFFFFFFFFFFF DUP3 AND SWAP1 POP SWAP2 SWAP1 POP JUMP JUMPDEST PUSH2 0xBC DUP2 PUSH2 0x98 JUMP JUMPDEST DUP3 MSTORE POP POP JUMP JUMPDEST PUSH0 PUSH1 0x20 DUP3 ADD SWAP1 POP PUSH2 0xD5 PUSH0 DUP4 ADD DUP5 PUSH2 0xB3 JUMP JUMPDEST SWAP3 SWAP2 POP POP JUMP JUMPDEST PUSH0 DUP2 SWAP1 POP SWAP2 SWAP1 POP JUMP JUMPDEST PUSH2 0xED DUP2 PUSH2 0xDB JUMP JUMPDEST DUP3 MSTORE POP POP JUMP JUMPDEST PUSH0 PUSH1 0x20 DUP3 ADD SWAP1 POP PUSH2 0x106 PUSH0 DUP4 ADD DUP5 PUSH2 0xE4 JUMP JUMPDEST SWAP3 SWAP2 POP POP JUMP INVALID LOG2 PUSH5 0x6970667358 0x22 SLT KECCAK256 0xF8 0xD9 0x27 PUSH17 0x8DCDE5360C02D93EA2F7ED7F790A64C8E 0x2E SELFBALANCE BALANCE 0xB5 0xC0 RETURNDATACOPY PUSH8 0x213DBCD864736F6C PUSH4 0x43000818 STOP CALLER "
				},
				"gasEstimates": {
					"creation": {
						"codeDepositCost": "64400",
						"executionCost": "140",
						"totalCost": "64540"
					},
					"external": {
						"MAX_EXP_INPUT()": "293",
						"SCALING_FACTOR()": "309"
					},
					"internal": {
						"exp(int256)": "infinite"
					}
				},
				"methodIdentifiers": {
					"MAX_EXP_INPUT()": "bb0a0aa5",
					"SCALING_FACTOR()": "ef4cadc5"
				}
			},
			"storageLayout": {
				"storage": [],
				"types": null
			},
			"userdoc": {
				"kind": "user",
				"methods": {},
				"version": 1
			}
		}
	}
}