{
	"data": {
		"bytecode": {
			"linkReferences": {},
			"object": "608060405234801561000f575f80fd5b506105628061001d5f395ff3fe608060405234801561000f575f80fd5b5060043610610029575f3560e01c8063ba7fb4491461002d575b5f80fd5b610047600480360381019061004291906103e9565b61005d565b6040516100549190610448565b60405180910390f35b5f610079848363ffffffff1685610074919061048e565b610082565b90509392505050565b5f8082036100bc576040517fc52de37200000000000000000000000000000000000000000000000000000000815260040160405180910390fd5b81670de0b6b3a76400006100d085856100ec565b6100da91906104fc565b6100e491906104fc565b905092915050565b5f8082670de0b6b3a764000085610103919061048e565b61010d91906104fc565b9050680755bf798b4a1bf1e46fffffffffffffffffffffffffffffffff1681111561015157680755bf798b4a1bf1e46fffffffffffffffffffffffffffffffff1690505b61015a81610163565b91505092915050565b5f7ffffffffffffffffffffffffffffffffffffffffffffffffdb731c958f34d94c18213610193575f9050610374565b680755bf798b4a1bf1e582126101d5576040517f35278d1200000000000000000000000000000000000000000000000000000000815260040160405180910390fd5b6503782dace9d9604e83901b816101ef576101ee6104cf565b5b0591505f60606b8000000000000000000000006bb17217f7d1cf79abc9e3b398606086901b81610222576102216104cf565b5b0501901d90506bb17217f7d1cf79abc9e3b3988102830392505f6c10fe68e7fd37d0007b713f7650840190506d02d16720577bd19bf614176fe9ea6060858302901d0190505f6d04a4fd9f2a8b96949216d2255a6c8583010390506e0587f503bb6ea29d25fcb7401964506060838302901d01905079d835ebba824c98fb31b83b2ca45c0000000000000000000000008582020190505f6c240c330e9fb2d9cbaf0fd5aafc860390506d0277594991cfc85f6e2461837cd96060878302901d0190506d1a521255e34f6a5061b25ef1c9c46060878302901d0390506db1bbb201f443cf962f1a1d3db4a56060878302901d0190506e02c72388d9f74f51a9331fed693f156060878302901d0390506e05180bb14799ab47a8a8cb2a527d576060878302901d01905080820594508360c30374029d9dc38563c32e5c2f6dc192ee70ef65f9978af38602901c9450505050505b919050565b5f80fd5b5f819050919050565b61038f8161037d565b8114610399575f80fd5b50565b5f813590506103aa81610386565b92915050565b5f63ffffffff82169050919050565b6103c8816103b0565b81146103d2575f80fd5b50565b5f813590506103e3816103bf565b92915050565b5f805f60608486031215610400576103ff610379565b5b5f61040d8682870161039c565b935050602061041e8682870161039c565b925050604061042f868287016103d5565b9150509250925092565b6104428161037d565b82525050565b5f60208201905061045b5f830184610439565b92915050565b7f4e487b71000000000000000000000000000000000000000000000000000000005f52601160045260245ffd5b5f6104988261037d565b91506104a38361037d565b92508282026104b18161037d565b915082820484148315176104c8576104c7610461565b5b5092915050565b7f4e487b71000000000000000000000000000000000000000000000000000000005f52601260045260245ffd5b5f6105068261037d565b91506105118361037d565b925082610521576105206104cf565b5b82820490509291505056fea264697066735822122029fb9d7144ec2aa6f0b9d64c1b1e15b76e0a55956ec612cc31c0a2b00e610c3864736f6c63430008180033",
			"opcodes": "PUSH1 0x80 PUSH1 0x40 MSTORE CALLVALUE DUP1 ISZERO PUSH2 0xF JUMPI PUSH0 DUP1 REVERT JUMPDEST POP PUSH2 0x562 DUP1 PUSH2 0x1D PUSH0 CODECOPY PUSH0 RETURN INVALID PUSH1 0x80 PUSH1 0x40 MSTORE CALLVALUE DUP1 ISZERO PUSH2 0xF JUMPI PUSH0 DUP1 REVERT JUMPDEST POP PUSH1 0x4 CALLDATASIZE LT PUSH2 0x29 JUMPI PUSH0 CALLDATALOAD PUSH1 0xE0 SHR DUP1 PUSH4 0xBA7FB449 EQ PUSH2 0x2D JUMPI JUMPDEST PUSH0 DUP1 REVERT JUMPDEST PUSH2 0x47 PUSH1 0x4 DUP1 CALLDATASIZE SUB DUP2 ADD SWAP1 PUSH2 0x42 SWAP2 SWAP1 PUSH2 0x3E9 JUMP JUMPDEST PUSH2 0x5D JUMP JUMPDEST PUSH1 0x40 MLOAD PUSH2 0x54 SWAP2 SWAP1 PUSH2 0x448 JUMP JUMPDEST PUSH1 0x40 MLOAD DUP1 SWAP2 SUB SWAP1 RETURN JUMPDEST PUSH0 PUSH2 0x79 DUP5 DUP4 PUSH4 0xFFFFFFFF AND DUP6 PUSH2 0x74 SWAP2 SWAP1 PUSH2 0x48E JUMP JUMPDEST PUSH2 0x82 JUMP JUMPDEST SWAP1 POP SWAP4 SWAP3 POP POP POP JUMP JUMPDEST PUSH0 DUP1 DUP3 SUB PUSH2 0xBC JUMPI PUSH1 0x40 MLOAD PUSH32 0xC52DE37200000000000000000000000000000000000000000000000000000000 DUP2 MSTORE PUSH1 0x4 ADD PUSH1 0x40 MLOAD DUP1 SWAP2 SUB SWAP1 REVERT JUMPDEST DUP2 PUSH8 0xDE0B6B3A7640000 PUSH2 0xD0 DUP6 DUP6 PUSH2 0xEC JUMP JUMPDEST PUSH2 0xDA SWAP2 SWAP1 PUSH2 0x4FC JUMP JUMPDEST PUSH2 0xE4 SWAP2 SWAP1 PUSH2 0x4FC JUMP JUMPDEST SWAP1 POP SWAP3 SWAP2 POP POP JUMP JUMPDEST PUSH0 DUP1 DUP3 PUSH8 0xDE0B6B3A7640000 DUP6 PUSH2 0x103 SWAP2 SWAP1 PUSH2 0x48E JUMP JUMPDEST PUSH2 0x10D SWAP2 SWAP1 PUSH2 0x4FC JUMP JUMPDEST SWAP1 POP PUSH9 0x755BF798B4A1BF1E4 PUSH16 0xFFFFFFFFFFFFFFFFFFFFFFFFFFFFFFFF AND DUP2 GT ISZERO PUSH2 0x151 JUMPI PUSH9 0x755BF798B4A1BF1E4 PUSH16 0xFFFFFFFFFFFFFFFFFFFFFFFFFFFFFFFF AND SWAP1 POP JUMPDEST PUSH2 0x15A DUP2 PUSH2 0x163 JUMP JUMPDEST SWAP2 POP POP SWAP3 SWAP2 POP POP JUMP JUMPDEST PUSH0 PUSH32 0xFFFFFFFFFFFFFFFFFFFFFFFFFFFFFFFFFFFFFFFFFFFFFFFDB731C958F34D94C1 DUP3 SGT PUSH2 0x193 JUMPI PUSH0 SWAP1 POP PUSH2 0x374 JUMP JUMPDEST PUSH9 0x755BF798B4A1BF1E5 DUP3 SLT PUSH2 0x1D5 JUMPI PUSH1 0x40 MLOAD PUSH32 0x35278D1200000000000000000000000000000000000000000000000000000000 DUP2 MSTORE PUSH1 0x4 ADD PUSH1 0x40 MLOAD DUP1 SWAP2 SUB SWAP1 REVERT JUMPDEST PUSH6 0x3782DACE9D9 PUSH1 0x4E DUP4 SWAP1 SHL DUP2 PUSH2 0x1EF JUMPI PUSH2 0x1EE PUSH2 0x4CF JUMP JUMPDEST JUMPDEST SDIV SWAP2 POP PUSH0 PUSH1 0x60 PUSH12 0x800000000000000000000000 PUSH12 0xB17217F7D1CF79ABC9E3B398 PUSH1 0x60 DUP7 SWAP1 SHL DUP2 PUSH2 0x222 JUMPI PUSH2 0x221 PUSH2 0x4CF JUMP JUMPDEST JUMPDEST SDIV ADD SWAP1 SAR SWAP1 POP PUSH12 0xB17217F7D1CF79ABC9E3B398 DUP2 MUL DUP4 SUB SWAP3 POP PUSH0 PUSH13 0x10FE68E7FD37D0007B713F7650 DUP5 ADD SWAP1 POP PUSH14 0x2D16720577BD19BF614176FE9EA PUSH1 0x60 DUP6 DUP4 MUL SWAP1 SAR ADD SWAP1 POP PUSH0 PUSH14 0x4A4FD9F2A8B96949216D2255A6C DUP6 DUP4 ADD SUB SWAP1 POP PUSH15 0x587F503BB6EA29D25FCB740196450 PUSH1 0x60 DUP4 DUP4 MUL SWAP1 SAR ADD SWAP1 POP PUSH26 0xD835EBBA824C98FB31B83B2CA45C000000000000000000000000 DUP6 DUP3 MUL ADD SWAP1 POP PUSH0 PUSH13 0x240C330E9FB2D9CBAF0FD5AAFC DUP7 SUB SWAP1 POP PUSH14 0x277594991CFC85F6E2461837CD9 PUSH1 0x60 DUP8 DUP4 MUL SWAP1 SAR ADD SWAP1 POP PUSH14 0x1A521255E34F6A5061B25EF1C9C4 PUSH1 0x60 DUP8 DUP4 MUL SWAP1 SAR SUB SWAP1 POP PUSH14 0xB1BBB201F443CF962F1A1D3DB4A5 PUSH1 0x60 DUP8 DUP4 MUL SWAP1 SAR ADD SWAP1 POP PUSH15 0x2C72388D9F74F51A9331FED693F15 PUSH1 0x60 DUP8 DUP4 MUL SWAP1 SAR SUB SWAP1 POP PUSH15 0x5180BB14799AB47A8A8CB2A527D57 PUSH1 0x60 DUP8 DUP4 MUL SWAP1 SAR ADD SWAP1 POP DUP1 DUP3 SDIV SWAP5 POP DUP4 PUSH1 0xC3 SUB PUSH21 0x29D9DC38563C32E5C2F6DC192EE70EF65F9978AF3 DUP7 MUL SWAP1 SHR SWAP5 POP POP POP POP POP JUMPDEST SWAP2 SWAP1 POP JUMP JUMPDEST PUSH0 DUP1 REVERT JUMPDEST PUSH0 DUP2 SWAP1 POP SWAP2 SWAP1 POP JUMP JUMPDEST PUSH2 0x38F DUP2 PUSH2 0x37D JUMP JUMPDEST DUP2 EQ PUSH2 0x399 JUMPI PUSH0 DUP1 REVERT JUMPDEST POP JUMP JUMPDEST PUSH0 DUP2 CALLDATALOAD SWAP1 POP PUSH2 0x3AA DUP2 PUSH2 0x386 JUMP JUMPDEST SWAP3 SWAP2 POP POP JUMP JUMPDEST PUSH0 PUSH4 0xFFFFFFFF DUP3 AND SWAP1 POP SWAP2 SWAP1 POP JUMP JUMPDEST PUSH2 0x3C8 DUP2 PUSH2 0x3B0 JUMP JUMPDEST DUP2 EQ PUSH2 0x3D2 JUMPI PUSH0 DUP1 REVERT JUMPDEST POP JUMP JUMPDEST PUSH0 DUP2 CALLDATALOAD SWAP1 POP PUSH2 0x3E3 DUP2 PUSH2 0x3BF JUMP JUMPDEST SWAP3 SWAP2 POP POP JUMP JUMPDEST PUSH0 DUP1 PUSH0 PUSH1 0x60 DUP5 DUP7 SUB SLT ISZERO PUSH2 0x400 JUMPI PUSH2 0x3FF PUSH2 0x379 JUMP JUMPDEST JUMPDEST PUSH0 PUSH2 0x40D DUP7 DUP3 DUP8 ADD PUSH2 0x39C JUMP JUMPDEST SWAP4 POP POP PUSH1 0x20 PUSH2 0x41E DUP7 DUP3 DUP8 ADD PUSH2 0x39C JUMP JUMPDEST SWAP3 POP POP PUSH1 0x40 PUSH2 0x42F DUP7 DUP3 DUP8 ADD PUSH2 0x3D5 JUMP JUMPDEST SWAP2 POP POP SWAP3 POP SWAP3 POP SWAP3 JUMP JUMPDEST PUSH2 0x442 DUP2 PUSH2 0x37D JUMP JUMPDEST DUP3 MSTORE POP POP JUMP JUMPDEST PUSH0 PUSH1 0x20 DUP3 ADD SWAP1 POP PUSH2 0x45B PUSH0 DUP4 ADD DUP5 PUSH2 0x439 JUMP JUMPDEST SWAP3 SWAP2 POP POP JUMP JUMPDEST PUSH32 0x4E487B7100000000000000000000000000000000000000000000000000000000 PUSH0 MSTORE PUSH1 0x11 PUSH1 0x4 MSTORE PUSH1 0x24 PUSH0 REVERT JUMPDEST PUSH0 PUSH2 0x498 DUP3 PUSH2 0x37D JUMP JUMPDEST SWAP2 POP PUSH2 0x4A3 DUP4 PUSH2 0x37D JUMP JUMPDEST SWAP3 POP DUP3 DUP3 MUL PUSH2 0x4B1 DUP2 PUSH2 0x37D JUMP JUMPDEST SWAP2 POP DUP3 DUP3 DIV DUP5 EQ DUP4 ISZERO OR PUSH2 0x4C8 JUMPI PUSH2 0x4C7 PUSH2 0x461 JUMP JUMPDEST JUMPDEST POP SWAP3 SWAP2 POP POP JUMP JUMPDEST PUSH32 0x4E487B7100000000000000000000000000000000000000000000000000000000 PUSH0 MSTORE PUSH1 0x12 PUSH1 0x4 MSTORE PUSH1 0x24 PUSH0 REVERT JUMPDEST PUSH0 PUSH2 0x506 DUP3 PUSH2 0x37D JUMP JUMPDEST SWAP2 POP PUSH2 0x511 DUP4 PUSH2 0x37D JUMP JUMPDEST SWAP3 POP DUP3 PUSH2 0x521 JUMPI PUSH2 0x520 PUSH2 0x4CF JUMP JUMPDEST JUMPDEST DUP3 DUP3 DIV SWAP1 POP SWAP3 SWAP2 POP POP JUMP INVALID LOG2 PUSH5 0x6970667358 0x22 SLT KECCAK256 0x29 0xFB SWAP14 PUSH18 0x44EC2AA6F0B9D64C1B1E15B76E0A55956EC6 SLT 0xCC BALANCE 0xC0 LOG2 0xB0 0xE PUSH2 0xC38 PUSH5 0x736F6C6343 STOP ADDMOD XOR STOP CALLER "
		},
		"gasEstimates": {
			"creation": {
				"codeDepositCost": "275600",
				"executionCost": "316",
				"totalCost": "275916"
			},
			"external": {
				"baseFee(uint256,uint256,uint32)": "infinite"
			}
		},
		"methodIdentifiers": {
			"baseFee(uint256,uint256,uint32)": "ba7fb449"
		}
	},
	"abi": [
		{
			"inputs": [],
			"name": "EIP1559_INVALID_PARAMS",
			"type": "error"
		},
		{
			"inputs": [],
			"name": "Overflow",
			"type": "error"
		},
		{
			"inputs": [
				{
					"internalType": "uint256",
					"name": "gasExcess_",
					"type": "uint256"
				},
				{
					"internalType": "uint256",
					"name": "basefeeAdjustmentQuotient",
					"type": "uint256"
				},
				{
					"internalType": "uint32",
					"name": "gasTargetPerL1Block",
					"type": "uint32"
				}
			],
			"name": "baseFee",
			"outputs": [
				{
					"internalType": "uint256",
					"name": "basefee_",
					"type": "uint256"
				}
			],
			"stateMutability": "view",
			"type": "function"
		}
	]
}