{"abi":[{"type":"function","name":"baseFee","inputs":[{"name":"gasExcess_","type":"uint256","internalType":"uint256"},{"name":"basefeeAdjustmentQuotient","type":"uint256","internalType":"uint256"},{"name":"gasTargetPerL1Block","type":"uint32","internalType":"uint32"}],"outputs":[{"name":"basefee_","type":"uint256","internalType":"uint256"}],"stateMutability":"pure"},{"type":"error","name":"EIP1559_INVALID_PARAMS","inputs":[]},{"type":"error","name":"Overflow","inputs":[]}],"bytecode":{"object":"0x608060405234801561001057600080fd5b50610359806100206000396000f3fe608060405234801561001057600080fd5b506004361061002b5760003560e01c8063ba7fb44914610030575b600080fd5b61004361003e36600461029a565b610055565b60405190815260200160405180910390f35b60006100708461006b63ffffffff8516866102dc565b610078565b949350505050565b60008160000361009b57604051636296f1b960e11b815260040160405180910390fd5b81670de0b6b3a76400006100af85856100cc565b6100b99190610301565b6100c39190610301565b90505b92915050565b600080826100e2670de0b6b3a7640000866102dc565b6100ec9190610301565b9050680755bf798b4a1bf1e481111561010b5750680755bf798b4a1bf1e45b610070816000680248ce36a70cb26b3e19821361012a57506000919050565b680755bf798b4a1bf1e5821261015357604051631a93c68960e11b815260040160405180910390fd5b6503782dace9d9604e83901b059150600060606bb17217f7d1cf79abc9e3b39884821b056001605f1b01901d6bb17217f7d1cf79abc9e3b39881029093036c240c330e9fb2d9cbaf0fd5aafb1981018102606090811d6d0277594991cfc85f6e2461837cd9018202811d6d1a521255e34f6a5061b25ef1c9c319018202811d6db1bbb201f443cf962f1a1d3db4a5018202811d6e02c72388d9f74f51a9331fed693f1419018202811d6e05180bb14799ab47a8a8cb2a527d57016d02d16720577bd19bf614176fe9ea6c10fe68e7fd37d0007b713f765084018402831d9081019084016d01d3967ed30fc4f89c02bab5708119010290911d6e0587f503bb6ea29d25fcb740196450019091026d360d7aeea093263ecc6e0ecb291760621b010574029d9dc38563c32e5c2f6dc192ee70ef65f9978af30260c3939093039290921c92915050565b6000806000606084860312156102af57600080fd5b8335925060208401359150604084013563ffffffff811681146102d157600080fd5b809150509250925092565b80820281158282048414176100c657634e487b7160e01b600052601160045260246000fd5b60008261031e57634e487b7160e01b600052601260045260246000fd5b50049056fea2646970667358221220d9498ae9597e25ec7d44fd6d19917dc7523392d26d6bbbf147481b8e01df680f64736f6c63430008180033","linkReferences":{}},"methodIdentifiers":{"baseFee(uint256,uint256,uint32)":"ba7fb449"},"id":0}