{"abi":[{"type":"function","name":"MAX_EXP_INPUT","inputs":[],"outputs":[{"name":"","type":"uint128","internalType":"uint128"}],"stateMutability":"view"},{"type":"function","name":"SCALING_FACTOR","inputs":[],"outputs":[{"name":"","type":"uint256","internalType":"uint256"}],"stateMutability":"view"},{"type":"error","name":"Overflow","inputs":[]}],"bytecode":{"object":"0x60c8610039600b82828239805160001a60731461002c57634e487b7160e01b600052600060045260246000fd5b30600052607381538281f3fe7300000000000000000000000000000000000000003014608060405260043610603d5760003560e01c8063bb0a0aa5146042578063ef4cadc5146077575b600080fd5b6051680755bf798b4a1bf1e481565b6040516fffffffffffffffffffffffffffffffff90911681526020015b60405180910390f35b6085670de0b6b3a764000081565b604051908152602001606e56fea26469706673582212207e023d4e2541e1baa60cbc39e0464535c566daee06402b7bb354b73f9b990abe64736f6c63430008180033","linkReferences":{}},"methodIdentifiers":{"MAX_EXP_INPUT()":"bb0a0aa5","SCALING_FACTOR()":"ef4cadc5"},"id":2}